{
  "_format": "hh-sol-artifact-1",
  "contractName": "GasSponsor",
  "sourceName": "contracts/GasSponsor.sol",
  "abi": [
    {
      "inputs": [],
      "stateMutability": "nonpayable",
      "type": "constructor"
    },
    {
      "inputs": [
        {
          "internalType": "bytes",
          "name": "returnData",
          "type": "bytes"
        }
      ],
      "name": "CallFailed",
      "type": "error"
    },
    {
      "inputs": [
        {
          "internalType": "uint256",
          "name": "used",
          "type": "uint256"
        },
        {
          "internalType": "uint256",
          "name": "budget",
          "type": "uint256"
        }
      ],
      "name": "DailyBudgetExceeded",
      "type": "error"
    },
    {
      "inputs": [
        {
          "internalType": "uint256",
          "name": "deadline",
          "type": "uint256"
        }
      ],
      "name": "DeadlineExpired",
      "type": "error"
    },
    {
      "inputs": [],
      "name": "ECDSAInvalidSignature",
      "type": "error"
    },
    {
      "inputs": [
        {
          "internalType": "uint256",
          "name": "length",
          "type": "uint256"
        }
      ],
      "name": "ECDSAInvalidSignatureLength",
      "type": "error"
    },
    {
      "inputs": [
        {
          "internalType": "bytes32",
          "name": "s",
          "type": "bytes32"
        }
      ],
      "name": "ECDSAInvalidSignatureS",
      "type": "error"
    },
    {
      "inputs": [
        {
          "internalType": "uint256",
          "name": "requested",
          "type": "uint256"
        },
        {
          "internalType": "uint256",
          "name": "max",
          "type": "uint256"
        }
      ],
      "name": "GasLimitExceeded",
      "type": "error"
    },
    {
      "inputs": [
        {
          "internalType": "uint256",
          "name": "required",
          "type": "uint256"
        },
        {
          "internalType": "uint256",
          "name": "available",
          "type": "uint256"
        }
      ],
      "name": "InsufficientBalance",
      "type": "error"
    },
    {
      "inputs": [
        {
          "internalType": "uint256",
          "name": "expected",
          "type": "uint256"
        },
        {
          "internalType": "uint256",
          "name": "provided",
          "type": "uint256"
        }
      ],
      "name": "InvalidNonce",
      "type": "error"
    },
    {
      "inputs": [],
      "name": "InvalidSignature",
      "type": "error"
    },
    {
      "inputs": [
        {
          "internalType": "address",
          "name": "owner",
          "type": "address"
        }
      ],
      "name": "OwnableInvalidOwner",
      "type": "error"
    },
    {
      "inputs": [
        {
          "internalType": "address",
          "name": "account",
          "type": "address"
        }
      ],
      "name": "OwnableUnauthorizedAccount",
      "type": "error"
    },
    {
      "inputs": [],
      "name": "ReentrancyGuardReentrantCall",
      "type": "error"
    },
    {
      "inputs": [
        {
          "internalType": "address",
          "name": "signer",
          "type": "address"
        }
      ],
      "name": "SignerNotAllowed",
      "type": "error"
    },
    {
      "anonymous": false,
      "inputs": [
        {
          "indexed": true,
          "internalType": "address",
          "name": "from",
          "type": "address"
        },
        {
          "indexed": false,
          "internalType": "uint256",
          "name": "amount",
          "type": "uint256"
        }
      ],
      "name": "Deposited",
      "type": "event"
    },
    {
      "anonymous": false,
      "inputs": [
        {
          "indexed": true,
          "internalType": "address",
          "name": "signer",
          "type": "address"
        },
        {
          "indexed": true,
          "internalType": "address",
          "name": "target",
          "type": "address"
        },
        {
          "indexed": false,
          "internalType": "uint256",
          "name": "value",
          "type": "uint256"
        },
        {
          "indexed": false,
          "internalType": "uint256",
          "name": "gasUsed",
          "type": "uint256"
        },
        {
          "indexed": false,
          "internalType": "bool",
          "name": "success",
          "type": "bool"
        }
      ],
      "name": "MetaTransactionExecuted",
      "type": "event"
    },
    {
      "anonymous": false,
      "inputs": [
        {
          "indexed": true,
          "internalType": "address",
          "name": "previousOwner",
          "type": "address"
        },
        {
          "indexed": true,
          "internalType": "address",
          "name": "newOwner",
          "type": "address"
        }
      ],
      "name": "OwnershipTransferred",
      "type": "event"
    },
    {
      "anonymous": false,
      "inputs": [
        {
          "indexed": true,
          "internalType": "address",
          "name": "signer",
          "type": "address"
        }
      ],
      "name": "SignerAdded",
      "type": "event"
    },
    {
      "anonymous": false,
      "inputs": [
        {
          "indexed": true,
          "internalType": "address",
          "name": "signer",
          "type": "address"
        }
      ],
      "name": "SignerRemoved",
      "type": "event"
    },
    {
      "anonymous": false,
      "inputs": [
        {
          "indexed": true,
          "internalType": "address",
          "name": "to",
          "type": "address"
        },
        {
          "indexed": false,
          "internalType": "uint256",
          "name": "amount",
          "type": "uint256"
        }
      ],
      "name": "Withdrawn",
      "type": "event"
    },
    {
      "inputs": [
        {
          "internalType": "address",
          "name": "signer",
          "type": "address"
        }
      ],
      "name": "addSigner",
      "outputs": [],
      "stateMutability": "nonpayable",
      "type": "function"
    },
    {
      "inputs": [
        {
          "internalType": "address[]",
          "name": "signers",
          "type": "address[]"
        }
      ],
      "name": "addSigners",
      "outputs": [],
      "stateMutability": "nonpayable",
      "type": "function"
    },
    {
      "inputs": [
        {
          "internalType": "address",
          "name": "",
          "type": "address"
        }
      ],
      "name": "allowedSigners",
      "outputs": [
        {
          "internalType": "bool",
          "name": "",
          "type": "bool"
        }
      ],
      "stateMutability": "view",
      "type": "function"
    },
    {
      "inputs": [],
      "name": "dailyGasBudget",
      "outputs": [
        {
          "internalType": "uint256",
          "name": "",
          "type": "uint256"
        }
      ],
      "stateMutability": "view",
      "type": "function"
    },
    {
      "inputs": [
        {
          "internalType": "address",
          "name": "",
          "type": "address"
        }
      ],
      "name": "dailyGasUsed",
      "outputs": [
        {
          "internalType": "uint256",
          "name": "",
          "type": "uint256"
        }
      ],
      "stateMutability": "view",
      "type": "function"
    },
    {
      "inputs": [
        {
          "internalType": "address",
          "name": "signer",
          "type": "address"
        },
        {
          "internalType": "address",
          "name": "target",
          "type": "address"
        },
        {
          "internalType": "uint256",
          "name": "value",
          "type": "uint256"
        },
        {
          "internalType": "bytes",
          "name": "data",
          "type": "bytes"
        },
        {
          "internalType": "uint256",
          "name": "deadline",
          "type": "uint256"
        },
        {
          "internalType": "uint256",
          "name": "nonce",
          "type": "uint256"
        },
        {
          "internalType": "bytes",
          "name": "signature",
          "type": "bytes"
        }
      ],
      "name": "executeMetaTransaction",
      "outputs": [
        {
          "internalType": "bytes",
          "name": "",
          "type": "bytes"
        }
      ],
      "stateMutability": "nonpayable",
      "type": "function"
    },
    {
      "inputs": [
        {
          "internalType": "address",
          "name": "signer",
          "type": "address"
        },
        {
          "internalType": "address payable",
          "name": "to",
          "type": "address"
        },
        {
          "internalType": "uint256",
          "name": "value",
          "type": "uint256"
        },
        {
          "internalType": "uint256",
          "name": "deadline",
          "type": "uint256"
        },
        {
          "internalType": "uint256",
          "name": "nonce",
          "type": "uint256"
        },
        {
          "internalType": "bytes",
          "name": "signature",
          "type": "bytes"
        }
      ],
      "name": "executeTransfer",
      "outputs": [],
      "stateMutability": "nonpayable",
      "type": "function"
    },
    {
      "inputs": [
        {
          "internalType": "address",
          "name": "signer",
          "type": "address"
        },
        {
          "internalType": "address",
          "name": "target",
          "type": "address"
        },
        {
          "internalType": "uint256",
          "name": "value",
          "type": "uint256"
        },
        {
          "internalType": "bytes",
          "name": "data",
          "type": "bytes"
        },
        {
          "internalType": "uint256",
          "name": "deadline",
          "type": "uint256"
        },
        {
          "internalType": "uint256",
          "name": "nonce",
          "type": "uint256"
        }
      ],
      "name": "getMessageHash",
      "outputs": [
        {
          "internalType": "bytes32",
          "name": "",
          "type": "bytes32"
        }
      ],
      "stateMutability": "view",
      "type": "function"
    },
    {
      "inputs": [
        {
          "internalType": "address",
          "name": "signer",
          "type": "address"
        }
      ],
      "name": "getRemainingBudget",
      "outputs": [
        {
          "internalType": "uint256",
          "name": "",
          "type": "uint256"
        }
      ],
      "stateMutability": "view",
      "type": "function"
    },
    {
      "inputs": [
        {
          "internalType": "address",
          "name": "signer",
          "type": "address"
        },
        {
          "internalType": "address",
          "name": "to",
          "type": "address"
        },
        {
          "internalType": "uint256",
          "name": "value",
          "type": "uint256"
        },
        {
          "internalType": "uint256",
          "name": "deadline",
          "type": "uint256"
        },
        {
          "internalType": "uint256",
          "name": "nonce",
          "type": "uint256"
        }
      ],
      "name": "getTransferHash",
      "outputs": [
        {
          "internalType": "bytes32",
          "name": "",
          "type": "bytes32"
        }
      ],
      "stateMutability": "view",
      "type": "function"
    },
    {
      "inputs": [
        {
          "internalType": "address",
          "name": "signer",
          "type": "address"
        }
      ],
      "name": "isSignerAllowed",
      "outputs": [
        {
          "internalType": "bool",
          "name": "",
          "type": "bool"
        }
      ],
      "stateMutability": "view",
      "type": "function"
    },
    {
      "inputs": [
        {
          "internalType": "address",
          "name": "",
          "type": "address"
        }
      ],
      "name": "lastResetTimestamp",
      "outputs": [
        {
          "internalType": "uint256",
          "name": "",
          "type": "uint256"
        }
      ],
      "stateMutability": "view",
      "type": "function"
    },
    {
      "inputs": [],
      "name": "maxGasLimit",
      "outputs": [
        {
          "internalType": "uint256",
          "name": "",
          "type": "uint256"
        }
      ],
      "stateMutability": "view",
      "type": "function"
    },
    {
      "inputs": [
        {
          "internalType": "address",
          "name": "",
          "type": "address"
        }
      ],
      "name": "nonces",
      "outputs": [
        {
          "internalType": "uint256",
          "name": "",
          "type": "uint256"
        }
      ],
      "stateMutability": "view",
      "type": "function"
    },
    {
      "inputs": [],
      "name": "owner",
      "outputs": [
        {
          "internalType": "address",
          "name": "",
          "type": "address"
        }
      ],
      "stateMutability": "view",
      "type": "function"
    },
    {
      "inputs": [
        {
          "internalType": "address",
          "name": "signer",
          "type": "address"
        }
      ],
      "name": "removeSigner",
      "outputs": [],
      "stateMutability": "nonpayable",
      "type": "function"
    },
    {
      "inputs": [],
      "name": "renounceOwnership",
      "outputs": [],
      "stateMutability": "nonpayable",
      "type": "function"
    },
    {
      "inputs": [
        {
          "internalType": "uint256",
          "name": "_maxGasLimit",
          "type": "uint256"
        },
        {
          "internalType": "uint256",
          "name": "_dailyGasBudget",
          "type": "uint256"
        }
      ],
      "name": "setLimits",
      "outputs": [],
      "stateMutability": "nonpayable",
      "type": "function"
    },
    {
      "inputs": [
        {
          "internalType": "address",
          "name": "newOwner",
          "type": "address"
        }
      ],
      "name": "transferOwnership",
      "outputs": [],
      "stateMutability": "nonpayable",
      "type": "function"
    },
    {
      "inputs": [
        {
          "internalType": "address payable",
          "name": "to",
          "type": "address"
        },
        {
          "internalType": "uint256",
          "name": "amount",
          "type": "uint256"
        }
      ],
      "name": "withdraw",
      "outputs": [],
      "stateMutability": "nonpayable",
      "type": "function"
    },
    {
      "stateMutability": "payable",
      "type": "receive"
    }
  ],
  "bytecode": "0x6080806040523461009057331561007a5760008054336001600160a01b03198216811783556040519290916001600160a01b0316907f8be0079c531659141344cd1fd0a4f28419497f9722a3daafe3b4186f6b6457e09080a3600180556207a120600455662386f26fc100006005556111ae90816100968239f35b631e4fbdf760e01b815260006004820152602490fd5b600080fdfe604060808152600480361015610048575b50361561001c57600080fd5b513481527f2da466a7b24304f47e87fa2e1e5a81b9831ce54fec19055ce277ca2f39ba42c460203392a2005b600090813560e01c80630e316ab714610b8b57806330e9b05b1461092c5780633ebbe37a1461090d5780635e45da23146108ee5780636a2927d3146108b6578063715018a61461085c5780637ecebe00146108245780638da5cb5b146107fc578063954f3b201461075a578063c4590d3f14610734578063dddf6ff9146103ac578063e8906a2d14610653578063eb12d61e146105ea578063eca81817146105c4578063f091dcf41461058c578063f2fde38b14610504578063f3fef3a314610458578063f66ed070146103ee578063f8b4d864146103ac5763fb90ef84146101315750610010565b82346103a85760c03660031901126103a85761014b610bf1565b610153610c0c565b846044356064359360843560a43567ffffffffffffffff81116103a45761017d9036908a01610c22565b90610186610e09565b5a9760018060a01b039360ff8b868816998a815260036020522054161561038d5781421161037657878d5260026020528a8d205480820361035a57509087949392918b519060208201927229b2b9b9b4b7b725b2bcaa3930b739b332b91d60691b84526001600160601b0319808a60601b166033850152878d169c60601b16604784015289605b840152607b830152609b8201524660bb8201523060601b60db82015260cf815261023681610d24565b5190207f19457468657265756d205369676e6564204d6573736167653a0a3332000000008d52601c52603c8c2091369061026f92610d95565b61027891610e2c565b61028191610ef8565b160361034a57846102a891848a526002602052878a206102a18154610cc5565b905561109a565b47811161032c57806102ed888080807f5f879d469c4936ceff0665af58fcadeb2d980925716eb1b891b123c87f185b2696895af1956102e5610dcc565b505a90610dfc565b865191825260208201528415156040820152606090a31561031057826001805580f35b916020604493519263a5fa8d2b60e01b84528301526024820152fd5b845163cf47918160e01b815280870191909152476024820152604490fd5b8551638baa579f60e01b81528790fd5b6044918d918d51926306427aeb60e01b84528301526024820152fd5b8a5163bc3088ef60e01b8152808d01839052602490fd5b8a51632429379960e01b8152808d01899052602490fd5b8480fd5b8280fd5b8284346103ea5760203660031901126103ea5760209160ff9082906001600160a01b036103d7610bf1565b1681526003855220541690519015158152f35b5080fd5b509190346104555760c03660031901126104555761040a610bf1565b92610413610c0c565b916064359067ffffffffffffffff821161045557509161043c6020959261044e94369101610c22565b9060a435936084359360443591610f7d565b9051908152f35b80fd5b508290346103a857816003193601126103a857610473610bf1565b6024359161047f610c99565b4783116104e757506001600160a01b0316918382848282156104de575b839283928392f1156104d5577f7084f5476618d8e60b11ef0d7d3f06914655adb8793e28ff7f018d4c76d505d59160209151908152a280f35b513d84823e3d90fd5b506108fc61049c565b835163cf47918160e01b8152908101839052476024820152604490fd5b508290346103a85760203660031901126103a857610520610bf1565b90610529610c99565b6001600160a01b0391821692831561057657505082546001600160a01b0319811683178455167f8be0079c531659141344cd1fd0a4f28419497f9722a3daafe3b4186f6b6457e08380a380f35b51631e4fbdf760e01b8152908101849052602490fd5b8284346103ea5760203660031901126103ea5760209181906001600160a01b036105b4610bf1565b1681526007845220549051908152f35b8284346103ea5760203660031901126103ea5760209061044e6105e5610bf1565b611026565b8284346103ea5760203660031901126103ea57610605610bf1565b61060d610c99565b6001600160a01b03168083526003602052908220805460ff191660011790557f47d1c22a25bb3a5d4e481b9b1e6944c2eade3181a0a20b495ed61d35b5323f248280a280f35b508290346103a8576020908160031936011261073057803567ffffffffffffffff9182821161072c573660238301121561072c578101359182116103a4576024810190602436918460051b0101116103a4576106ad610c99565b845b8281106106ba578580f35b610727906001600160a01b03806106da6106d5848888610cea565b610d10565b16885260038652868820805460ff191660011790556106fd6106d5838787610cea565b167f47d1c22a25bb3a5d4e481b9b1e6944c2eade3181a0a20b495ed61d35b5323f248880a2610cc5565b6106af565b8580fd5b8380fd5b5082346103a8573660031901126103ea5761074d610c99565b8035905560243560055580f35b8284346103ea5760a03660031901126103ea57602090610778610bf1565b610780610c0c565b90825190848201927229b2b9b9b4b7b725b2bcaa3930b739b332b91d60691b84526001600160601b0319809260601b16603384015260601b166047820152604435605b820152606435607b820152608435609b8201524660bb8201523060601b60db82015260cf81526107f281610d24565b5190209051908152f35b8284346103ea57816003193601126103ea57905490516001600160a01b039091168152602090f35b8284346103ea5760203660031901126103ea5760209181906001600160a01b0361084c610bf1565b1681526002845220549051908152f35b8234610455578060031936011261045557610875610c99565b80546001600160a01b03198116825581906001600160a01b03167f8be0079c531659141344cd1fd0a4f28419497f9722a3daafe3b4186f6b6457e08280a380f35b8284346103ea5760203660031901126103ea5760209181906001600160a01b036108de610bf1565b1681526006845220549051908152f35b508290346103a857826003193601126103a85760209250549051908152f35b8284346103ea57816003193601126103ea576020906005549051908152f35b508290346103a85760e03660031901126103a857610948610bf1565b610950610c0c565b90604435906064359567ffffffffffffffff968781116103ea576109779036908701610c22565b906084359360a4359960c4359081116103a4579061099d8a969594939236908b01610c22565b906109a6610e09565b5a9c60018060a01b039760ff8986169a8b8a5260036020528920541615610b7357804211610b5d5789885260026020528d882054808303610b4057508993610a328a94610a008f958f958c8c610a3898610a419a8e610f7d565b7f19457468657265756d205369676e6564204d6573736167653a0a3332000000008c52601c52603c8b20923691610d95565b90610e2c565b90929192610ef8565b1603610b30578a610a619187865260026020528b86206102a18154610cc5565b478611610b135791817f5f879d469c4936ceff0665af58fcadeb2d980925716eb1b891b123c87f185b26949382938b5192839283378101838152039087895af194610ad786610ab9610ab1610dcc565b9b5a90610dfc565b8a519788526020880152151560408701529116939081906060820190565b0390a315610af45760018055815180610af08582610c50565b0390f35b905163a5fa8d2b60e01b8152918291610b0f91908301610c50565b0390fd5b885163cf47918160e01b8152808901879052476024820152604490fd5b8951638baa579f60e01b81528990fd5b8d8f604492859151926306427aeb60e01b84528301526024820152fd5b8c6024918f519163bc3088ef60e01b8352820152fd5b508c51632429379960e01b8152808d018a9052602490fd5b8284346103ea5760203660031901126103ea57610ba6610bf1565b610bae610c99565b6001600160a01b03168083526003602052908220805460ff191690557f3525e22824a8a7df2c9a6029941c824cf95b6447f1e13d5128fd3826d35afe8b8280a280f35b600435906001600160a01b0382168203610c0757565b600080fd5b602435906001600160a01b0382168203610c0757565b9181601f84011215610c075782359167ffffffffffffffff8311610c075760208381860195010111610c0757565b6020808252825181830181905290939260005b828110610c8557505060409293506000838284010152601f8019910116010190565b818101860151848201604001528501610c63565b6000546001600160a01b03163303610cad57565b60405163118cdaa760e01b8152336004820152602490fd5b6000198114610cd45760010190565b634e487b7160e01b600052601160045260246000fd5b9190811015610cfa5760051b0190565b634e487b7160e01b600052603260045260246000fd5b356001600160a01b0381168103610c075790565b610100810190811067ffffffffffffffff821117610d4157604052565b634e487b7160e01b600052604160045260246000fd5b90601f8019910116810190811067ffffffffffffffff821117610d4157604052565b67ffffffffffffffff8111610d4157601f01601f191660200190565b929192610da182610d79565b91610daf6040519384610d57565b829481845281830111610c07578281602093846000960137010152565b3d15610df7573d90610ddd82610d79565b91610deb6040519384610d57565b82523d6000602084013e565b606090565b91908203918211610cd457565b600260015414610e1a576002600155565b604051633ee5aeb560e01b8152600490fd5b8151919060418303610e5d57610e5692506020820151906060604084015193015160001a90610e68565b9192909190565b505060009160029190565b91907f7fffffffffffffffffffffffffffffff5d576e7357a4501ddfe92f46681b20a08411610eec57926020929160ff608095604051948552168484015260408301526060820152600092839182805260015afa15610ee05780516001600160a01b03811615610ed757918190565b50809160019190565b604051903d90823e3d90fd5b50505060009160039190565b6004811015610f675780610f0a575050565b60018103610f245760405163f645eedf60e01b8152600490fd5b60028103610f455760405163fce698f760e01b815260048101839052602490fd5b600314610f4f5750565b602490604051906335e2f38360e21b82526004820152fd5b634e487b7160e01b600052602160045260246000fd5b9492610f8c9196943691610d95565b60208151910120906040519460208601967029b2b9b9b4b7b725b2bca6b2ba30aa3c1d60791b88526001600160601b0319809260601b16603188015260601b16604586015260598501526079840152609983015260b98201524660d98201523060601b60f982015260ed8152610120810181811067ffffffffffffffff821117610d415760405251902090565b91908201809211610cd457565b6001600160a01b03166000818152600760205260408120549091906201518081019081106110865742101561107e5781526006602052604081205460055480821015611079576110769250610dfc565b90565b505090565b505060055490565b634e487b7160e01b83526011600452602483fd5b6001600160a01b0316600081815260076020908152604080832054919594939092916201518081019081106110865742101561115e575b3a8402938085043a149015171561114a57808252600686526110f68484842054611019565b60055480911161111a575061111693949560069183525220918254611019565b9055565b919383856006896111319560449952522054611019565b91519163f7699e7b60e01b835260048301526024820152fd5b634e487b7160e01b82526011600452602482fd5b8082526006865281838120556007865242838320556110d156fea264697066735822122022b48a310086924fab459be6da617c123de7f8079b107c10210994b81abbc93764736f6c63430008140033",
  "linkReferences": {},
  "deployedLinkReferences": {}
}